:060000000C9414010C94A5
:1000060087010C94C2010C9400000C9400000C941F
:1000160000000C9400000C9400000C9441010C9418
:1000260000000C9400000C9400000C9400000C944A
:1000360000000C9400000C9400000C9400000C943A
:1000460000000C94C3010C9400000C9400001027CF
:10005600E80364000A00010000100001100001001E
:100066000000FFFF000000000000432E2064652012
:100076005472616665676F0053656E68613A200069
:1000860053656E68613A2025640053656E68613A6F
:1000960020256425640053656E68613A2025642531
:1000A6006425640053656E68613A202564256425DD
:1000B6006425640042656D2056696E646F00446570
:1000C600736162696C697461722073656D61666FD4
:1000D600726F7300486162696C6974612073656D43
:1000E60061666F726F7300416C7465726172207421
:1000F600696D6572004E6F766F2076616C6F722047
:10010600706172612074696D657200506564657313
:10011600747265202D203100436172726F202D208C
:100126003200446967697465206F206E756D65726B
:100136006F3A2025640056616C6F722064657A659B
:100146006E613A2025640056616C6F7220756E6987
:1001560064616465733A20256425640054696D659D
:1001660072203D20256420730054696D65722061FC
:100176006C74657261646F20636F6D20737563655F
:1001860073736F2100416C74657261722073656EC2
:100196006861005072696D6569726F20646967698C
:1001A600746F3A200025642500536567756E646F89
:1001B6002064696769746F3A005465726365697291
:1001C6006F2064696769746F3A0051756172746F64
:1001D6002064696769746F3A004E6F7661207365B3
:1001E6006E68613A200053656E686120616C7465C3
:1001F6007261646120636F6D207375636573736FDD
:10020600210053656E686120496E636F7272657472
:10021600610080C00A000400660002006001180246
:100226000000F894EE27ECBBF1E0FBBFEBBFE5BFA7
:100236008DE0A2E0BB27ED938A95E9F780E094E094
:10024600A0E6ED930197E9F7EAE1F2E08591959151
:10025600009761F0A591B59105901590BF01F00149
:1002660005900D920197E1F7FB01F0CFEFE5EDBFA9
:10027600E4E0EEBFC0E6D1E00C94C4010A921A9203
:100286009A93AA93BA93EA93FA93EFB7EA9307D5A8
:10029600D301EAE0F0E032D64F01AAE0B0E016D68C
:1002A600DF01F301EA1BFB0B5F01002460147004FD
:1002B6001CF0F30131973F01A0FC02C0D89801C0A1
:1002C600D89AA1FC02C0D99801C0D99AA2FC02C052
:1002D600DA9801C0DA9AA3FC02C0DB9801C0DB9A67
:1002E60080FC02C0DC9801C0DC9A81FC02C0DD986B
:1002F60001C0DD9AE991EFBFF991E991B991A99110
:1003060099911990099018950A921A92FA926A93FD
:100316007A938A939A93AA93BA93EA93FA93EFB746
:10032600EA93A8E9BAE30AD6C098C19AA0EDB7E065
:1003360005D6C198C29AACEDB5E000D6C598C39A69
:10034600A8E9BAE3FBD5C398C49AA0EDB7E0F6D501
:10035600C29AC498C59AA0EDB7E0F0D5C298C09AE3
:10036600C59AE991EFBFF991E991B991A99199914E
:10037600899179916991F990199009901895189534
:100386001895AD97E0E0E887E987EA87EB878CD494
:10039600EFE3EABBE0E0EBBBEFE7E7BBE1E6E8BB98
:1003A600E0E0E4BBE5BBE1BBEFEFE2BBE0E0E3BFCF
:1003B600E2BFECBFEFBDE5E0EEBD71D4E0E0E7BD26
:1003C600E6BDEBBDEABDE9BDE8BDE2BDE5BDE4BD08
:1003D600E3BDE4E0E9BFEBB7E06EEBBFEFE0E5BFFE
:1003E600E0E4E4BFE0EEEABFE0E0EAB9E0E8E8B95D
:1003F600E0E0E0BFE6B9EDB9E6BFA0E18DD27894C2
:10040600E0E0E883E983EA83EB83EC83ED83EE8324
:10041600EF8351D455D4EEE7F0E061D4DE011C96AB
:100426006CD247D2859B0DC0839901C05ED4849956
:1004360001C060D440D444D4E6E8F0E060D465D48A
:10044600F1CFA8EEB3E07AD5859B0EC0839901C0A3
:1004560066D4849901C068D42ED432D4E0E9F0E0A1
:100466004ED467D46AD4F0CFA8EEB3E067D5859BA7
:100476000FC0839901C06BD4849901C06DD41BD47D
:100486001FD4ECE9F0E03BD454D46BD46ED4EFCF58
:10049600A8EEB3E053D5859B0FC0839901C06FD4F6
:1004A600849901C074D407D40BD4EAEAF0E027D4C7
:1004B60040D457D474D4EFCFA8EEB3E03FD5E8814B
:1004C600F981E017F10789F4EA81FB81E217F30766
:1004D60061F4EC81FD81E417F50739F4EE81FF81C3
:1004E600AA85BB85EA17FB0709F0A0C1E4D3EAEBAE
:1004F600F0E0F5D3D9D361D466D4E885F985309791
:1005060089F4D9D3E4ECF0E0EAD362D4859904C047
:10051600C098C19AC598C49A839901C060D4849939
:1005260001C065D4A885B985119789F4C4D3EAEDCD
:10053600F0E0D5D34DD4859904C0C09AC198C59A28
:10054600C498839901C04BD4849901C050D4A8851E
:10055600B985129709F0A7C0AED3EDEEF0E0BFD390
:1005660037D485999AC0A7D3EBEFF0E0B8D3DE0174
:100576001C96C3D144D49FD3E1E1F1E0B0D343D478
:10058600EEE1F1E0ACD347D494D101E010E0859BD5
:1005960018C091D3E8E2F1E0B2D3B7D3839901C092
:1005A600A4D3849901C0A6D3E3E0F0E0E017F107F5
:1005B60011F401E010E0002E012A11F402E010E02F
:1005C600E6CFA8ECB0E0BAD4E1E0F0E0E017F1073E
:1005D60009F063C000E010E0859B1CC06CD3ECE31F
:1005E600F1E08DD392D3869B15C0839901C07DD34C
:1005F600849901C07FD3E4E0F0E0E017F10711F43D
:1006060000E010E0EFEFFFEFE017F10711F403E071
:1006160010E0E2CFA8ECB0E091D4859B1DC04BD38F
:10062600EDE4F1E06CD385D388D3869B15C083991E
:1006360001C075D3849901C077D3EAE0F0E0E217F0
:10064600F30711F420E030E0EFEFFFEFE217F307D6
:1006560011F429E030E0E1CFA8ECB0E06FD4F80166
:10066600AAE0B0E033D4E20FF31F3F0100E010E050
:1006760020E030E020D3E2E6F1E0FA93EA93F301DA
:1006860018D457D484E0C5D22896C5D314D3EFE640
:10069600F1E025D3A0EDB7E051D4839901C09FD3F3
:1006A600849901C0A4D3A885B985139709F0ACC075
:1006B60002D3EBE8F1E013D38BD385999FC0A4EF67
:1006C600B1E03CD4859B12C0F6D2E9E9F1E007D34C
:1006D6009AD3EBEAF1E013D318D3869B07C083992C
:1006E60001C003D3849901C005D3ECCF08831983D5
:1006F600A8ECB0E023D4859B13C0DDD2EFEAF1E08D
:10070600EED281D3E7E9F0E0FAD213D316D3869B73
:1007160007C0839901C003D3849901C005D3EBCFE9
:10072600FE01329620833183A8ECB0E007D4859B86
:1007360014C0C1D2EFEBF1E0D2D265D3E3EAF0E028
:10074600DED2F7D20ED311D3869B07C0839901C0A0
:10075600FED2849901C000D3EACFFE0134964083CD
:100766005183A8ECB0E0EAD3859B14C0A4D2E0ED97
:10077600F1E0B5D248D3E1EBF0E0C1D2DAD2F1D262
:100786000ED3869B07C0839901C0F9D2849901C014
:10079600FED2EACFEA85FB85EE83FF8385D2E0E0D1
:1007A600EA87EB8788D2EFEDF1E099D2DE011C965D
:1007B600A4D081D2E1EBF0E0FA93EA93EC81FD81DB
:1007C60078D3B7D3EA85FB8574D3B3D3E889F9899F
:1007D60070D3AFD3EE89FF896CD3ABD380E119D246
:1007E6006496E0E0EA93A1E051D015D362D063D2DB
:1007F600ECEEF1E074D2DE011C96E5D2839901C0DD
:10080600EED2849901C0F3D2A885B985149719F45C
:10081600E0E0E887E987A885B985AF3FEFEFBE0737
:1008260021F4E3E0F0E0E887F98767CE44D2E8E018
:10083600F2E055D2DE011C9660D036D2E0E0EA87BF
:10084600EB87DDD2E6CDFFCF1A931A2FE5B3EF7013
:10085600AE2FE12FE07FEA2BE5BB89E18A95F1F720
:10086600AA9A89E18A95F1F7AA9889E18A95F1F71A
:100876007DC0AA93A881E8DFE881E295E883A88194
:10088600E3DF86EF8A95F1F7219608951A930A9386
:100896001A2F0A81E12FF0E0E05AFE4FE081E00FC7
:1008A600AE2FE7DFC02E10936401198108812396CD
:1008B6000895A2E0B6D2ACE0DCDFA1E0B2D2E0E07F
:1008C600E0936401CE2E08951A931A2F1A3021F060
:1008D600E0916501CE1658F0E0E0EA93A09164013C
:1008E600AF5FA0936401D2DF1A3009F43FC0C3940E
:1008F600A89AA12FBEDFA89839C0C3D29D01D901FD
:100906002F5F3F4FEC911E2FE03019F0A12FDCDF57
:10091600F6CFBED2249608951A931A2FE4B3E06F49
:10092600E4BBA29AA09AA19AAA98A898A99810930B
:100936006501E12FE058E0936201E12FE054E09376
:100946006301A4E1B0E0FAD270D26FD26ED2A0E217
:100956007BDF81E791E00197F1F7A8E28ADFA4E067
:1009660088DFA5E886DFA6E084DFA3DF1991089576
:1009760086D29D015E811296D4D23097E1F0D901DC
:100986001496CFD28F01309759F00230E0E01E075F
:1009960060F0F80131978F01D9011496ED93FC931D
:1009A600D901129649D231975083D901BAD2FF2381
:1009B6000AF042D205C0D901EFEFFFEFED93FC93A9
:1009C60065D227960895BA93AA93269758D210E02F
:1009D600AC85BD85E0E0F0E0ED93FC93EA89FB8908
:1009E6003196EA8BFB8B3197E4912E2FE03009F498
:1009F60009C1E12FE03031F4253211F411E001C0D4
:100A060021D2FFC0E130A1F4253211F41BD2F8C087
:100A160012E040E000E02D3211F401E0F2C02B328A
:100A260011F44BE2EEC0203211F440E2EAC002C0FB
:100A3600E23039F450E013E0203311F40068E1C0ED
:100A460003C0E33009F0DDC0203310F02A3308F08C
:100A560007C0AAE05A9F502DE22FE0535E0FD1C087
:100A6600E22FE33639F4F5D1E889F989A481AA930E
:100A7600F6D1C6C0E33729F4ECD1F7D1F7D01E2F53
:100A860007C0E03749F4E5D1F0D1FCD01E2F08604D
:100A960002600F7730E038C0E43611F0E93611F421
:100AA600046002C0E53731F4E4E5F0E0EE83FF834D
:100AB60015E00CC0E83511F4086003C0E83709F00A
:100AC6009FC0EEE5F0E0EE83FF8314E002FF15C061
:100AD600C0D1A889B9891496ED91FD91EA87FB8763
:100AE600AB85AA2322F4E1D1EA87FB874DE24030A9
:100AF60011F01F5F01C00B7F07C0ABD1A889B98970
:100B060014960FD2EA87FB8700FD10C0151770F404
:100B160007FF08C002FF04C00B7F242F115001C03D
:100B260020E301C020E28ED15150F0CF312F01FFDA
:100B360016C0303099F003FF06C0EE81FF81259183
:100B4600EE83FF8305C0AE81BF812D91AE83BF8347
:100B560079D1503009F051503150EBCF48C020E3E5
:100B6600EE81FF81E2D1E887F987EE81FF81329637
:100B7600EE83FF83E885F985AA85BB85AE17BF0797
:100B860050F02F5FA885B985EA85FB85EA1BFB0B2C
:100B9600EA87FB87EFCF2A3328F003FF02C0295FDD
:100BA60001C0295D04FD19C0213320F4A885B9854B
:100BB600119709F409C0531710F000FF01C011C0C6
:100BC60020E207FF0AC020E3006102FF06C00B7F98
:100BD6004A9345D1503009F0515034D1503009F084
:100BE60051503150A885B985129708F0B8CF00FF4B
:100BF60007C0503029F05150E0E2EA9330D1F9CFE6
:100C060010E0ECCEAC85BD85ED91FD913FD16496AB
:100C16000895FF92F82E269732D1FE013ED14685E1
:100C26005785042E052A19F4EFEFFFEF1BC0DE01EE
:100C3600189637D18D0148875987BFD032D1ED91AB
:100C4600FD91FA93EA931A930A93EBEBF4E0FA9385
:100C5600EA93DE011C96B7DE9F01A885B985E0E020
:100C6600EC93F90113D12C96FF900895BA93AA93A9
:100C7600A991B991EE27FF276D91662311F0319660
:100C8600FBCF0895BA93AA93AA27BB27E991F991B6
:100C96000590002011F01196FBCFFD010895E7ECB9
:100CA600EDBDE0ECECBD089500E010E020E030E0A2
:100CB60040E050E00895FE013C96FA93EA930895C9
:100CC600E0E7F0E0FA93EA9380E0A3DF2496DE0102
:100CD6001C9613DEE0E0EA93A1E0D8DDECCFFA93B0
:100CE600EA9380E096DF249608950F5F1F4FA8ECE5
:100CF600B0E024C101501040A8ECB0E01FC1FA9347
:100D0600EA93F801D6D015D1089584E082DF2896BB
:100D1600DE011C96F2DDA8ECB0E010D1CACD2F5F43
:100D26003F4FA8ECB0E00AC121503040A8ECB0E03B
:100D360005C1F901BED0FDD0089588E06ADF2C9682
:100D4600DE011C96DADDA8ECB0E0F8D0B2CD4F5F3C
:100D56005F4FA8ECB0E0F2C041505040A8ECB0E0C4
:100D6600EDC0FA01A6D0E5D008958CE052DF60967A
:100D7600DE011C96C2DDA8ECB0E0E0D09ACDEA8593
:100D8600FB853196EA87FB87A8ECB0E0D7C0EA85F9
:100D9600FB853197EA87FB87A8ECB0E0CFC0EA8DE8
:100DA600FB8D87D0C6D080E134DF6496DE011C96C9
:100DB600A4DDA8ECB0E0C2D07CCDE0E0EA87EB870A
:100DC600DE011C96089599DDA0EDB7E0B7D071CD90
:100DD600DE011C9692DDA8ECB0E0B0D06ACDE885C5
:100DE600F9853196E887F987A8ECB0E0A7C0E885D1
:100DF600F9853197E887F987A8ECB0E09FC0A8EE9F
:100E0600B3E09CD056CDDE011C9677DDE0E0EA9398
:100E1600A1E03CDD50CFDE011C966FDDACEDB5E008
:100E26008DC027DDA3E0B0E089C0A0E30DDD81E73A
:100E360091E00197F1F70895ED91FD913196FE93BA
:100E4600EE9308952A93AD85BE85EF85F8890995B9
:100E56000895E889F9893497E88BF98B0895AD856B
:100E6600BE85EF85F88909950895A889B9891496EC
:100E7600ED91FD91EE83FF83AE81BF8108955A9374
:100E86004A933A932A931A930A9308955D814C8163
:100E96003B812A811981088108950024EF0DF01DF8
:100EA60008950024AF0DB01D0895F195E195F04029
:100EB60008956F2F660F660B762F0895FA9FF02D13
:100EC600EB9FF00DEA9FE02DF10D08951CD0F6DFA3
:100ED6000EF4EBDF08950024112490E1AA0FBB1F46
:100EE600001C111C0E1A1F0A18F40E0E1F1E01C03C
:100EF600A1609A9599F7FD01D001089504D0EBDF22
:100F06000EF4D3DF0895E894F7FF02C0CEDF6894AD
:100F1600B7FF06C0B195A195B04000F8039400FA5A
:100F26000895ED91FC91119708950590F491E02DA7
:100F360008957A936A93FA93EA930895109639F08E
:100F4600A89586E69EE00197F1F71197C9F70895EF
:00000001FF
