:080000000C9480000C94AD008B
:100008000C94E8000C9400000C9400000C94000080
:100018000C9400000C9400000C9400000C94000058
:100028000C9400000C9400000C9400000C94000048
:100038000C9400000C9400000C9400000C94000038
:100048000C94E9000C9400000C9400001027E803BD
:1000580064000A0001000010000110000100000007
:10006800432E206465205472616665676F0053658E
:100078006E68613A200053656E68613A2025640015
:1000880053656E68613A20256425640053656E687F
:10009800613A202564256425640053656E68613AD9
:1000A8002025642564256425640042656D20566911
:1000B8006E646F004465736162696C697461722073
:1000C80073656D61666F726F7300416C7465726100
:1000D800722074696D65720053656E686120496E9F
:1000E800636F72726574610080C00100050066006C
:1000F80002006001F0000000F894EE27ECBBF1E08C
:10010800FBBFEBBFE5BF8DE0A2E0BB27ED938A956F
:10011800E9F780E094E0A0E6ED930197E9F7E2EFD4
:10012800F0E085919591009761F0A591B5910590C2
:100138001590BF01F00105900D920197E1F7FB01C1
:10014800F0CFEFE5EDBFE4E0EEBFC0E6D1E00C9400
:10015800EA000A921A92FA926A937A938A939A9385
:10016800AA93BA93EA93FA93EFB7EA93A8E9BAE3A2
:10017800FDD3C098C19AA0EDB7E0F8D3C198C29A50
:10018800ACEDB5E0F3D3C598C39AA8E9BAE3EED3CA
:10019800C398C49AA0EDB7E0E9D3C29AC498C59AA7
:1001A800A0EDB7E0E3D3C298C09AC59AE991EFBF32
:1001B800F991E991B991A991999189917991699167
:1001C800F99019900990189518951895A597E0E059
:1001D800E883E983EA83EB8321D3EABBE0E0EBBB66
:1001E800EFE7E7BBE1E6E8BBE0E0E4BBE5BBE1BB8A
:1001F800EFEFE2BBE0E0E3BFE2BFECBFEFBDEEBD77
:10020800EDBDECBDE7BDE6BDEBBDEABDE9BDE8BDB2
:10021800E2BDE5BDE4BDE3BDE9BFEBB7E06EEBBF12
:10022800EFE0E5BFE0E4E4BFE0EEEABFE0E0EAB912
:10023800E0E8E8B9E0E0E0BFE6B9EDB9E6BFA0E183
:1002480027D17894F3D2F7D2E6E7F0E003D3F4D0DD
:10025800859B18C0839905C00F5F1F4FA8ECB0E0BD
:1002680085D3849905C001501040A8ECB0E07ED336
:10027800DDD2E1D2EEE7F0E0F5D284E085D228962F
:10028800F7D2E6CFA8EEB3E071D3859B19C0839966
:1002980005C02F5F3F4FA8ECB0E068D3849905C034
:1002A80021503040A8ECB0E061D3C0D2C4D2E8E815
:1002B800F0E0D8D2E4D288E067D22C96D9D2E5CF44
:1002C800A8EEB3E053D3859B1AC0839905C04F5F4E
:1002D8005F4FA8ECB0E04AD3849905C04150504024
:1002E800A8ECB0E043D3A2D2A6D2E4E9F0E0BAD2B7
:1002F800C6D2C9D28CE048D26096BAD2E4CFA8EE72
:10030800B3E034D3859B1CC0839904C0EA81FB8188
:100318003196BDD2849904C0EA81FB813197B7D266
:1003280085D289D2E2EAF0E09DD2A9D2ACD2EA899C
:10033800FB890AD316D380E127D2649699D2E2CFFB
:10034800A8EEB3E013D300240016010661F40024DC
:100358000216030641F400240416050621F4AA81B6
:10036800BB81109709F027C061D2E2EBF0E072D2AE
:10037800A0EDB7E0FBD260D0E881F981309759F45D
:1003880055D2ECEBF0E066D287D2B39901C088D29F
:10039800B49901C08BD2A881B981119759F446D27A
:1003A800E2EDF0E057D278D2B39901C079D2B4998E
:1003B80001C07CD2E1CF3AD2E0EEF0E04BD22ED2AF
:1003C800EA83EB83A8EEB3E0D1D236D03BCFFFCFA0
:1003D8001A931A2FE5B3EF70AE2FE12FE07FEA2BC7
:1003E800E5BB89E18A95F1F7AA9A89E18A95F1F73F
:1003F800AA9889E18A95F1F774C0AA93A881E8DFE1
:10040800E881E295E883A881E3DF86EF8A95F1F732
:10041800219608951A930A931A2F0A81E12FF0E082
:10042800E05AFE4FE081E00FAE2FE7DF402E712E3D
:100438001981088123960895A2E03ED2ACE0DDDF61
:10044800A1E03AD2E0E07E2E4E2E08951A931A2F9C
:100458001A3011F0461438F0E0E0EA937394A72DAF
:10046800D9DF1A30F1F14394A89AA12FC6DFA898D2
:1004780038C052D29D01D9012F5F3F4FEC911E2FFA
:10048800E03019F0A12FE2DFF6CF4DD2249608957F
:100498001A931A2FE4B3E06FE4BBA29AA09AA19A28
:1004A800AA98A898A998612EE12FE058E0936201D4
:1004B800E12FE054E0936301A4E1B0E057D200D209
:1004C800FFD1FED1A0E284DF81E791E00197F1F747
:1004D800A8E293DFA4E091DFA5E88FDFA6E08DDF37
:1004E800ABDF1991089516D29D015E81129631D223
:1004F8003097E1F0D90114962CD28F01309759F03A
:100508000230E0E01E0760F0F80131978F01D90151
:100518001496ED93FC93D9011296D9D13197508353
:10052800D90117D2FF230AF0D2D105C0D901EFEFC4
:10053800FFEFED93FC93F5D127960895BA93AA930C
:100548002697E8D110E0AC85BD85E0E0F0E0ED93BA
:10055800FC93EA89FB893196EA8BFB8B3197E4910E
:100568002E2FE03009F409C1E12FE03031F42532B3
:1005780011F411E001C0B1D1FFC0E130A1F425327E
:1005880011F4ABD1F8C012E040E000E02D3211F4D4
:1005980001E0F2C02B3211F44BE2EEC0203211F42C
:1005A80040E2EAC002C0E23039F450E013E0203300
:1005B80011F40068E1C003C0E33009F0DDC0203366
:1005C80010F02A3308F007C0AAE05A9F502DE22FF6
:1005D800E0535E0FD1C0E22FE33639F485D1E889C4
:1005E800F989A481AA9386D1C6C0E33729F47CD1BE
:1005F80087D1FBD01E2F07C0E03749F475D180D1D1
:1006080000D11E2F086002600F7730E038C0E43652
:1006180011F0E93611F4046002C0E53731F4E4E57D
:10062800F0E0EE83FF8315E00CC0E83511F40860B4
:1006380003C0E83709F09FC0EEE5F0E0EE83FF83E2
:1006480014E002FF15C050D1A889B9891496ED911C
:10065800FD91EA87FB87AB85AA2322F471D1EA874B
:10066800FB874DE2403011F01F5F01C00B7F07C0D0
:100678003BD1A889B98914966CD1EA87FB8700FD1C
:1006880010C0151770F407FF08C002FF04C00B7FE5
:10069800242F115001C020E301C020E21ED1515087
:1006A800F0CF312F01FF16C0303099F003FF06C09C
:1006B800EE81FF812591EE83FF8305C0AE81BF8166
:1006C8002D91AE83BF8309D1503009F0515031507C
:1006D800EBCF48C020E3EE81FF813FD1E887F9875F
:1006E800EE81FF813296EE83FF83E885F985AA853E
:1006F800BB85AE17BF0750F02F5FA885B985EA857F
:10070800FB85EA1BFB0BEA87FB87EFCF2A3328F030
:1007180003FF02C0295F01C0295D04FD19C0213310
:1007280020F4A885B985119709F409C0531710F06A
:1007380000FF01C011C020E207FF0AC020E30061EA
:1007480002FF06C00B7F4A93D5D0503009F05150B4
:10075800C4D0503009F051503150A885B98512974E
:1007680008F0B8CF00FF07C0503029F05150E0E240
:10077800EA93C0D0F9CF10E0ECCEAC85BD85ED9101
:10078800FD91CFD064960895FF92F82E2697C2D097
:10079800FE01CED046855785042E052A19F4EFEFC1
:1007A800FFEF1FC0DE011896C7D08D014887598713
:1007B800E0E0EA87EB87DE011C96BED0ED91FD9163
:1007C800FA93EA931A930A93E7E7F2E0FA93EA9323
:1007D800DE011C96B3DE9F01A885B985E0E0EC93A5
:1007E800F9019FD02C96FF900895BA93AA93A991E6
:1007F800B991EE27FF276D91662311F03196FBCF53
:100808000895BA93AA93AA27BB27E991F99105906D
:10081800002011F01196FBCFFD01089500E010E0D3
:1008280020E030E040E050E0E0E00895FE0134963A
:10083800FA93EA930895E8E6F0E0FA93EA9380E001
:10084800A3DF2496DE01149614DEE0E0EA93A1E02B
:10085800E1DDECCFFA93EA9380E096DF2496DE019F
:10086800149607CEFA93EA93F8016ED07AD00895D9
:10087800DE011496FEDDA8ECB0E078D0DDCDF901FC
:1008880063D06FD00895FA015FD06BD00895EA83E2
:10089800FB83A8ECB0E06AC0A8ECB0E067D0CCCD90
:1008A800E881F9813196E883F9830895E881F9812F
:1008B8003197E883F9830895A0DDA3E0B0E056C03E
:1008C800A0E386DD81E791E00197F1F70895ED91C6
:1008D800FD913196FE93EE9308952A93AD85BE85DA
:1008E800EF85F88909950895E889F9893497E88B9F
:1008F800F98B0895AD85BE85EF85F889099508952A
:10090800A889B9891496ED91FD91EE83FF83AE8194
:10091800BF8108955A934A933A932A931A930A9354
:1009280008955D814C813B812A8119810881089550
:100938000024EF0DF01D08950024AF0DB01D08959B
:10094800F195E195F04008956F2F660F660B762FAD
:100958000895ED91FC91119708950590F491E02D7B
:1009680008957A936A93FA93EA930895109639F062
:10097800A89586E69EE00197F1F71197C9F70895C3
:00000001FF
