:0A0000000C94FF000C9472010C94A4
:10000A00AD010C9400000C9400000C9400000C94B8
:10001A0000000C9400000C942C010C9400000C9429
:10002A0000000C9400000C9400000C9400000C9446
:10003A0000000C9400000C9400000C9400000C9436
:10004A00AE010C9400000C9400001027E803640031
:10005A000A00010000100001100001000000FFFF6B
:10006A00000000000000432E20646520547261667F
:10007A0065676F0053656E68613A200053656E6864
:10008A00613A2025640053656E68613A202564252B
:10009A00640053656E68613A20256425642564000E
:1000AA0053656E68613A20256425642564256400D9
:1000BA0042656D2056696E646F00446573616269BA
:1000CA006C697461722073656D61666F726F73001B
:1000DA00486162696C6974612073656D61666F72EB
:1000EA006F7300416C74657261722074696D657218
:1000FA00004E6F766F2076616C6F7220706172614C
:10010A002074696D65720056616C6F722064657A3D
:10011A00656E613A2025640056616C6F7220756EB7
:10012A006964616465733A20256425640054696DC5
:10013A006572203D20256420730054696D65722024
:10014A00616C74657261646F20636F6D207375638F
:10015A006573736F2100416C7465726172207365F7
:10016A006E6861005072696D6569726F20646967B3
:10017A0069746F3A200025642500536567756E64BB
:10018A006F2064696769746F3A00546572636569C0
:10019A00726F2064696769746F3A0051756172748D
:1001AA006F2064696769746F3A004E6F76612073D5
:1001BA00656E68613A200053656E686120616C74EF
:1001CA00657261646120636F6D2073756365737313
:1001DA006F210053656E686120496E636F727265A4
:1001EA007461000080C00A00040066000200600119
:1001FA00EE010000F894EE27ECBBF1E0FBBFEBBF89
:10020A00E5BF8DE0A2E0BB27ED938A95E9F780E090
:10021A0094E0A0E6ED930197E9F7E0EFF1E085912C
:10022A009591009761F0A591B59105901590BF0140
:10023A00F00105900D920197E1F7FB01F0CFEFE590
:10024A00EDBFE4E0EEBFC0E6D1E00C94AF010A9244
:10025A001A929A93AA93BA93EA93FA93EFB7EA9304
:10026A00D6D4D301EAE0F0E001D64F01AAE0B0E02B
:10027A00E5D5DF01F301EA1BFB0B5F0100246014E3
:10028A0070041CF0F30131973F01A0FC02C0D8981A
:10029A0001C0D89AA1FC02C0D99801C0D99AA2FC7F
:1002AA0002C0DA9801C0DA9AA3FC02C0DB9801C046
:1002BA00DB9A80FC02C0DC9801C0DC9A81FC02C097
:1002CA00DD9801C0DD9AE991EFBFF991E991B99101
:1002DA00A99199911990099018950A921A92FA92ED
:1002EA006A937A938A939A93AA93BA93EA93FA931C
:1002FA00EFB7EA93A8E9BAE3D9D5C098C19AA0EDB5
:10030A00B7E0D4D5C198C29AACEDB5E0CFD5C598BF
:10031A00C39AA8E9BAE3CAD5C398C49AA0EDB7E0CC
:10032A00C5D5C29AC498C59AA0EDB7E0BFD5C29800
:10033A00C09AC59AE991EFBFF991E991B991A9914A
:10034A009991899179916991F990199009901895E3
:10035A0018951895AD97E0E0E887E987EA87EB8773
:10036A005BD4EFE3EABBE0E0EBBBEFE7E7BBE1E638
:10037A00E8BBE0E0E4BBE5BBE1BBEFEFE2BBE0E0FA
:10038A00E3BFE2BFECBFEFBDE5E0EEBD40D4E0E085
:10039A00E7BDE6BDEBBDEABDE9BDE8BDE2BDE5BD31
:1003AA00E4BDE3BDE4E0E9BFEBB7E06EEBBFEFE02D
:1003BA00E5BFE0E4E4BFE0EEEABFE0E0EAB9E0E886
:1003CA00E8B9E0E0E0BFE6B9EDB9E6BFA0E15CD28A
:1003DA007894E0E0E883E983EA83EB83EC83ED83B6
:1003EA00EE83EF8320D424D4EEE7F0E030D4DE01AC
:1003FA001C963BD216D2859B0DC0839901C02DD481
:10040A00849901C02FD40FD413D4E6E8F0E02FD496
:10041A0034D4F1CFA8EEB3E049D5859B0EC08399B9
:10042A0001C035D4849901C037D4FDD301D4E0E9A1
:10043A00F0E01DD436D439D4F0CFA8EEB3E036D5E7
:10044A00859B0FC0839901C03AD4849901C03CD4DA
:10045A00EAD3EED3ECE9F0E00AD423D43AD43DD47B
:10046A00EFCFA8EEB3E022D5859B0FC0839901C0D8
:10047A003ED4849901C043D4D6D3DAD3EAEAF0E071
:10048A00F6D30FD426D443D4EFCFA8EEB3E00ED5DB
:10049A00E881F981E017F10789F4EA81FB81E21723
:1004AA00F30761F4EC81FD81E417F50739F4EE8175
:1004BA00FF81AA85BB85EA17FB0709F06FC1B3D391
:1004CA00EAEBF0E0C4D3A8D330D435D4E885F98573
:1004DA00309789F4A8D3E4ECF0E0B9D331D4859904
:1004EA0004C0C098C19AC598C49A839901C02FD4F0
:1004FA00849901C034D4A885B985119789F493D316
:10050A00EAEDF0E0A4D31CD4859904C0C09AC1983E
:10051A00C59AC498839901C01AD4849901C01FD47A
:10052A00A885B985129709F076C07DD3EDEEF0E083
:10053A008ED306D4859969C076D3EBEFF0E087D3E2
:10054A00DE011C9692D113D4859B1CC06CD3E1E1C9
:10055A00F1E08DD392D3869B15C0839901C07DD3D8
:10056A00849901C07FD3E4E0F0E0E017F10711F4C9
:10057A0000E010E0EFEFFFEFE017F10711F403E0FE
:10058A0010E0E2CFA8ECB0E091D4859B1DC04BD31C
:10059A00E2E2F1E06CD385D388D3869B15C08399B8
:1005AA0001C075D3849901C077D3EAE0F0E0E2177D
:1005BA00F30711F420E030E0EFEFFFEFE217F30763
:1005CA0011F429E030E0E1CFA8ECB0E06FD4F801F3
:1005DA00AAE0B0E033D4E20FF31F3F0100E010E0DD
:1005EA0020E030E020D3E7E3F1E0FA93EA93F30165
:1005FA0018D457D484E0C5D22896BDD314D3E4E4E2
:10060A00F1E025D3A0EDB7E051D4839901C09FD37F
:10061A00849901C0A4D3A885B985139709F0ACC001
:10062A0002D3E0E6F1E013D38BD385999FC0A4EF00
:10063A00B1E03CD4859B12C0F6D2EEE6F1E007D3D6
:10064A00A0D3E0E8F1E013D318D3869B07C08399BF
:10065A0001C003D3849901C005D3ECCF0883198361
:10066A00A8ECB0E023D4859B13C0DDD2E4E8F1E026
:10067A00EED287D3E7E9F0E0FAD213D316D3869BFA
:10068A0007C0839901C003D3849901C005D3EBCF76
:10069A00FE01329620833183A8ECB0E007D4859B13
:1006AA0014C0C1D2E4E9F1E0D2D26BD3E3EAF0E0BC
:1006BA00DED2F7D20ED311D3869B07C0839901C02D
:1006CA00FED2849901C000D3EACFFE01349640835A
:1006DA005183A8ECB0E0EAD3859B14C0A4D2E5EA22
:1006EA00F1E0B5D24ED3E1EBF0E0C1D2DAD2F1D2E9
:1006FA000ED3869B07C0839901C0F9D2849901C0A1
:10070A00FED2EACFEA85FB85EE83FF8385D2E0E05D
:10071A00EA87EB8788D2E4EBF1E099D2DE011C96F6
:10072A00A4D081D2E1EBF0E0FA93EA93EC81FD8167
:10073A0078D3B7D3EA85FB8574D3B3D3E889F9892B
:10074A0070D3AFD3EE89FF896CD3ABD380E119D2D2
:10075A006496E0E0EA93A1E051D00DD362D063D26F
:10076A00E1ECF1E074D2DE011C96E5D2839901C076
:10077A00EED2849901C0F3D2A885B985149719F4E9
:10078A00E0E0E887E987A885B985AF3FEFEFBE07C4
:10079A0021F4E3E0F0E0E887F98798CE44D2EDED62
:1007AA00F1E055D2DE011C9660D036D2E0E0EA874D
:1007BA00EB87DDD217CEFFCF1A931A2FE5B3EF706E
:1007CA00AE2FE12FE07FEA2BE5BB89E18A95F1F7AD
:1007DA00AA9A89E18A95F1F7AA9889E18A95F1F7A7
:1007EA007DC0AA93A881E8DFE881E295E883A88121
:1007FA00E3DF86EF8A95F1F7219608951A930A9313
:10080A001A2F0A81E12FF0E0E05AFE4FE081E00F53
:10081A00AE2FE7DFC02E1093640119810881239659
:10082A000895A2E0B6D2ACE0DCDFA1E0B2D2E0E00B
:10083A00E0936401CE2E08951A931A2F1A3021F0EC
:10084A00E0916501CE1658F0E0E0EA93A0916401C8
:10085A00AF5FA0936401D2DF1A3009F43FC0C3949A
:10086A00A89AA12FBEDFA89839C0C3D29D01D90189
:10087A002F5F3F4FEC911E2FE03019F0A12FDCDFE4
:10088A00F6CFBED2249608951A931A2FE4B3E06FD6
:10089A00E4BBA29AA09AA19AAA98A898A998109398
:1008AA006501E12FE058E0936201E12FE054E09303
:1008BA006301A4E1B0E0FAD270D26FD26ED2A0E2A4
:1008CA007BDF81E791E00197F1F7A8E28ADFA4E0F4
:1008DA0088DFA5E886DFA6E084DFA3DF1991089503
:1008EA0086D29D015E811296D4D23097E1F0D90169
:1008FA001496CFD28F01309759F00230E0E01E07EC
:10090A0060F0F80131978F01D9011496ED93FC93A9
:10091A00D901129649D231975083D901BAD2FF230D
:10092A000AF042D205C0D901EFEFFFEFED93FC9335
:10093A0065D227960895BA93AA93269758D210E0BB
:10094A00AC85BD85E0E0F0E0ED93FC93EA89FB8994
:10095A003196EA8BFB8B3197E4912E2FE03009F424
:10096A0009C1E12FE03031F4253211F411E001C060
:10097A0021D2FFC0E130A1F4253211F41BD2F8C014
:10098A0012E040E000E02D3211F401E0F2C02B3217
:10099A0011F44BE2EEC0203211F440E2EAC002C088
:1009AA00E23039F450E013E0203311F40068E1C07A
:1009BA0003C0E33009F0DDC0203310F02A3308F019
:1009CA0007C0AAE05A9F502DE22FE0535E0FD1C014
:1009DA00E22FE33639F4F5D1E889F989A481AA939B
:1009EA00F6D1C6C0E33729F4ECD1F7D1F7D01E2FE0
:1009FA0007C0E03749F4E5D1F0D1FCD01E2F0860DA
:100A0A0002600F7730E038C0E43611F0E93611F4AD
:100A1A00046002C0E53731F4E4E5F0E0EE83FF83D9
:100A2A0015E00CC0E83511F4086003C0E83709F096
:100A3A009FC0EEE5F0E0EE83FF8314E002FF15C0ED
:100A4A00C0D1A889B9891496ED91FD91EA87FB87EF
:100A5A00AB85AA2322F4E1D1EA87FB874DE2403035
:100A6A0011F01F5F01C00B7F07C0ABD1A889B989FC
:100A7A0014960FD2EA87FB8700FD10C0151770F491
:100A8A0007FF08C002FF04C00B7F242F115001C0CA
:100A9A0020E301C020E28ED15150F0CF312F01FF67
:100AAA0016C0303099F003FF06C0EE81FF81259110
:100ABA00EE83FF8305C0AE81BF812D91AE83BF83D4
:100ACA0079D1503009F051503150EBCF48C020E372
:100ADA00EE81FF81E2D1E887F987EE81FF813296C4
:100AEA00EE83FF83E885F985AA85BB85AE17BF0724
:100AFA0050F02F5FA885B985EA85FB85EA1BFB0BB9
:100B0A00EA87FB87EFCF2A3328F003FF02C0295F69
:100B1A0001C0295D04FD19C0213320F4A885B985D7
:100B2A00119709F409C0531710F000FF01C011C052
:100B3A0020E207FF0AC020E3006102FF06C00B7F24
:100B4A004A9345D1503009F0515034D1503009F010
:100B5A0051503150A885B985129708F0B8CF00FFD7
:100B6A0007C0503029F05150E0E2EA9330D1F9CF72
:100B7A0010E0ECCEAC85BD85ED91FD913FD1649638
:100B8A000895FF92F82E269732D1FE013ED146856E
:100B9A005785042E052A19F4EFEFFFEF1BC0DE017B
:100BAA00189637D18D0148875987BFD032D1ED9138
:100BBA00FD91FA93EA931A930A93E5E7F4E0FA931C
:100BCA00EA93DE011C96B7DE9F01A885B985E0E0AD
:100BDA00EC93F90113D12C96FF900895BA93AA9336
:100BEA00A991B991EE27FF276D91662311F03196ED
:100BFA00FBCF0895BA93AA93AA27BB27E991F99143
:100C0A000590002011F01196FBCFFD010895E7EC45
:100C1A00EDBDE0ECECBD089500E010E020E030E02E
:100C2A0040E050E00895FE013C96FA93EA93089555
:100C3A00E0E7F0E0FA93EA9380E0A3DF2496DE018E
:100C4A001C9613DEE0E0EA93A1E0D8DDECCFFA933C
:100C5A00EA9380E096DF249608950F5F1F4FA8EC71
:100C6A00B0E024C101501040A8ECB0E01FC1FA93D3
:100C7A00EA93F801D6D015D1089584E082DF289648
:100C8A00DE011C96F2DDA8ECB0E010D1CACD2F5FD0
:100C9A003F4FA8ECB0E00AC121503040A8ECB0E0C8
:100CAA0005C1F901BED0FDD0089588E06ADF2C960F
:100CBA00DE011C96DADDA8ECB0E0F8D0B2CD4F5FC9
:100CCA005F4FA8ECB0E0F2C041505040A8ECB0E051
:100CDA00EDC0FA01A6D0E5D008958CE052DF609607
:100CEA00DE011C96C2DDA8ECB0E0E0D09ACDEA8520
:100CFA00FB853196EA87FB87A8ECB0E0D7C0EA8586
:100D0A00FB853197EA87FB87A8ECB0E0CFC0EA8D74
:100D1A00FB8D87D0C6D080E134DF6496DE011C9655
:100D2A00A4DDA8ECB0E0C2D07CCDE0E0EA87EB8796
:100D3A00DE011C96089599DDA0EDB7E0B7D071CD1C
:100D4A00DE011C9692DDA8ECB0E0B0D06ACDE88551
:100D5A00F9853196E887F987A8ECB0E0A7C0E8855D
:100D6A00F9853197E887F987A8ECB0E09FC0A8EE2B
:100D7A00B3E09CD056CDDE011C9677DDACEDB5E034
:100D8A0095C0DE011C9671DDE0E0EA93A1E036DD54
:100D9A004ACF27DDA3E0B0E089C0A0E30DDD81E7FB
:100DAA0091E00197F1F70895ED91FD913196FE9347
:100DBA00EE9308952A93AD85BE85EF85F889099546
:100DCA000895E889F9893497E88BF98B0895AD85F8
:100DDA00BE85EF85F88909950895A889B989149679
:100DEA00ED91FD91EE83FF83AE81BF8108955A9301
:100DFA004A933A932A931A930A9308955D814C81F0
:100E0A003B812A811981088108950024EF0DF01D84
:100E1A0008950024AF0DB01D0895F195E195F040B5
:100E2A0008956F2F660F660B762F0895FA9FF02D9F
:100E3A00EB9FF00DEA9FE02DF10D08951CD0F6DF2F
:100E4A000EF4EBDF08950024112490E1AA0FBB1FD2
:100E5A00001C111C0E1A1F0A18F40E0E1F1E01C0C8
:100E6A00A1609A9599F7FD01D001089504D0EBDFAE
:100E7A000EF4D3DF0895E894F7FF02C0CEDF68943A
:100E8A00B7FF06C0B195A195B04000F8039400FAE7
:100E9A000895ED91FC91119708950590F491E02D34
:100EAA0008957A936A93FA93EA930895109639F01B
:100EBA00A89586E69EE00197F1F71197C9F708957C
:00000001FF
