:040000000C943C0020
:100004000C9469000C94A3000C9400000C94000060
:100014000C9400000C9400000C9400000C9400005C
:100024000C9400000C9400000C9400000C9400004C
:100034000C9400000C9400000C9400000C9400003C
:100044000C9400000C94A4000C9400000C94000088
:100054001027E80364000A000100001000011000EA
:100064000100000080C0010005006600020060017C
:1000740068000000F894EE27ECBBF1E0FBBFEBBF97
:10008400E5BF8DE0A2E0BB27ED938A95E9F780E018
:1000940094E0A0E6ED930197E9F7EAE6F0E08591B4
:1000A4009591009761F0A591B59105901590BF01C8
:1000B400F00105900D920197E1F7FB01F0CFEFE518
:1000C400EDBFE4E0EEBFC0E6D1E00C94A5000A92D7
:1000D4001A92FA926A937A938A939A93AA93BA9306
:1000E400EA93FA93EFB7EA93A8E9BAE3C7D0C098C2
:1000F400C19AA0EDB7E0C2D0C198C29AACEDB5E008
:10010400BDD0C598C39AA8E9BAE3B8D0C398C49A35
:10011400A0EDB7E0B3D0C29AC498C59AA0EDB7E0F9
:10012400ADD0C298C598E991EFBFF991E991B99121
:10013400A9919991899179916991F990199009906E
:10014400189518951895E0E0EABBEBBBEFE7E7BB21
:10015400E0E0E8BBE4BBE5BBE1BBEFEFE2BBE0E022
:10016400E3BFE2BFECBFEFBDEEBDEDBDECBDE7BD4F
:10017400E6BDEBBDEABDE9BDE8BDE2BDE5BDE4BD5C
:10018400E3BDE9BFEBB7E06EEBBFEFE0E5BFE0E452
:10019400E4BFE0EEEABFE0E0EAB9E0E8E8B9E0E0B5
:1001A400E0BFE6B9EDB9E6BFA8E032D07894C69ACC
:1001B400C09AC59AFDCFFFCF1A931A2FEBB3EF70F5
:1001C400AE2FE12FE07FEA2BEBBB89E18A95F1F7B3
:1001D400DA9A89E18A95F1F7DA9889E18A95F1F753
:1001E40040C0AA93A881E8DFE881E295E883A8816A
:1001F400E3DF86EF8A95F1F721960895A2E033D0E4
:10020400ACE0EFDFA1E02FD0E0E07E2E4E2E08958B
:100214001A931A2FEAB3E06FEABBD29AD09AD19A12
:10022400DA98D898D998612EE12FE058E0936201CA
:10023400E12FE054E0936301A4E1B0E01FD017D0B4
:1002440016D015D0A0E2B8DF81E791E00197F1F76D
:10025400A8E2C7DFA4E0C5DFA5E8C3DFA6E0C1DFED
:10026400CDDF19910895BDDFA3E0B0E007C0A0E39E
:10027400A3DF81E791E00197F1F70895109639F033
:10028400A89586E69EE00197F1F71197C9F70895BE
:00000001FF
