:0C0000000C9438000C9465000C94660011
:10000C000C9400000C9400000C9400000C94000064
:10001C000C9400000C9400000C9400000C94000054
:10002C000C9400000C9400000C9400000C94000044
:10003C000C9400000C9400000C9400000C946700CD
:10004C000C9400000C9400001027E80364000A00D4
:10005C000100001000011000010080C002006001CE
:10006C0066000000F894EE27ECBBF1E0FBBFEBBFA1
:10007C00E5BF8DE0A2E0BB27ED938A95E9F780E020
:10008C0094E0A0E6ED930197E9F7E8E6F0E08591BE
:10009C009591009761F0A591B59105901590BF01D0
:1000AC00F00105900D920197E1F7FB01F0CFEFE520
:1000BC00EDBFE4E0EEBFC0E6D1E00C94680018950B
:1000CC0018951895E0E0EABBEBBBE7BBE8BBE4BBDB
:1000DC00E5BBE1BBE2BBE3BFE2BFECBFEFBDEEBDF6
:1000EC00EDBDECBDE7BDE6BDEBBDEABDE9BDE8BDD0
:1000FC00E2BDE5BDE4BDE3BDE9BFEBB7E06EEBBF30
:10010C00EFE0E5BFE0E0E4BFE0EEEABFE0E0EAB933
:10011C00E0E8E8B9E0E0E0BFE6B9EDB9E6BFA8E099
:10012C002FD07894FFCFFFCF1A931A2FEBB3EF7029
:10013C00AE2FE12FE07FEA2BEBBB8DE08A95F1F738
:10014C00DA9A8DE08A95F1F7DA988DE08A95F1F7D5
:10015C0040C0AA93A881E8DFE881E295E883A881F2
:10016C00E3DF85E88A95F1F721960895A2E033D074
:10017C00ACE0EFDFA1E02FD0E0E04E2E5E2E089534
:10018C001A931A2FEAB3E06FEABBD29AD09AD19A9B
:10019C00DA98D898D998712EE12FE058E093620143
:1001AC00E12FE054E0936301A4E1B0E01FD017D03D
:1001BC0016D015D0A0E2B8DF88EC90E00197F1F7EB
:1001CC00A8E2C7DFA4E0C5DFA5E8C3DFA6E0C1DF76
:1001DC00CDDF19910895BDDFA3E0B0E007C0A0E327
:1001EC00A3DF88EC90E00197F1F70895109639F0B1
:1001FC00A8958EEC97E00197F1F71197C9F7089540
:00000001FF
